:020000040800F2
:1000000040250020B9020008C5B400083BAA00083A
:10001000C1B400088111000835D6000800000000B6
:1000200000000000000000000000000081B7000890
:100030002D1200080000000035B5000889BB00083B
:10004000D3020008D3020008D3020008D30200083C
:10005000D3020008D3020008D3020008D30200082C
:10006000D3020008D3020008D3020008D30200081C
:10007000D3020008D3020008D3020008D30200080C
:10008000D3020008D3020008D3020008D3020008FC
:10009000D3020008D3020008D3020008D3020008EC
:1000A000D3020008D3020008D3020008D3020008DC
:1000B00011BC0008D3020008D3020008D3020008D4
:1000C000D3020008D3020008D3020008D3020008BC
:1000D000D3020008D3020008D3020008D3020008AC
:1000E000D3020008D3020008D3020008D30200089C
:1000F000D3020008D3020008D3020008D30200088C
:10010000D3020008D3020008D3020008D30200087B
:10011000D3020008D3020008D3020008D30200086B
:10012000D3020008D3020008D3020008D30200085B
:10013000D3020008D3020008D3020008D30200084B
:10014000D3020008D3020008D302000801A100086E
:10015000D3020008D3020008D3020008D30200082B
:10016000D3020008D3020008D3020008D30200081B
:10017000D3020008D3020008D3020008D30200080B
:10018000D3020008D3020008D3020008D3020008FB
:10019000D302000800000000D3020008D3020008C8
:1001A00035120008D3020008D3020008D302000869
:1001B000D3020008D3020008D3020008D3020008CB
:1001C000D3020008D3020008D3020008D3020008BB
:1001D000D3020008D302000800F002F800F05CF837
:1001E0000AA090E8000C82448344AAF10107DA4592
:1001F00001D100F051F8AFF2090EBAE80F0013F088
:10020000010F18BFFB1A43F00103184798D70000ED
:10021000B8D700000A444FF0000C10F8013B13F06F
:10022000070408BF10F8014B1D1108BF10F8015B4F
:10023000641E05D010F8016B641E01F8016BF9D142
:1002400013F0080F1EBF10F8014BAD1C0C1B09D199
:100250006D1E58BF01F801CBFAD505E014F8016B0B
:1002600001F8016B6D1EF9D59142D6D3704700009D
:100270000023002400250026103A28BF78C1FBD8AF
:10028000520728BF30C148BF0B6070471FB50DF043
:100290005BFB1FBD10B510BD00F0D4F81146FFF791
:1002A000F5FF0DF007FB00F0F2F803B4FFF7F2FFE3
:1002B00003BC00F0F5F800000948804709480047F2
:1002C000FEE7FEE7FEE7FEE7FEE7FEE7FEE7FEE706
:1002D000FEE7FEE704480549054A064B7047000063
:1002E000FDBB0008D9010008400B0020402500207C
:1002F000401D0020401D002053EA020C00F06980E0
:100300002DE9F04B4FF00006002B1FBFB3FA83F529
:1003100003FA05F424FA05F65E4012BF1643B2FA5A
:1003200082F502FA05F4C5F120051EBF22FA05FC8C
:1003300044EA0C04203556EA044C4FEA144418BF32
:10034000641C4FF000084FF00009904271EB030C61
:1003500039D3002919BFB1FA81F701FA07F6B0FACB
:1003600080F700FA07F6C7F120071EBF20FA07FC46
:1003700046EA0C062037B6FBF4FCA7EB0507103F56
:1003800007F01F0BCBF120060CFA0BFB2CFA06F63C
:1003900044BFB3460026202FA4BF5E464FF0000B9B
:1003A0005BEA060C08BF4FF0010B19EB0B09ABFB26
:1003B000027C48EB0608C01B06FB02CC0BFB03CCFF
:1003C00071EB0C01C1E70B46024641464846BDE8C9
:1003D000F08B13B54FF000004FF00001AFF3008039
:1003E000BDE81C4070474FF0000200B5134694462C
:1003F0009646203922BFA0E80C50A0E80C50B1F17D
:100400002001BFF4F7AF090728BFA0E80C5048BF90
:100410000CC05DF804EB890028BF40F8042B08BF2E
:10042000704748BF20F8022B11F0804F18BF00F82A
:10043000012B7047704770477047000000487047B5
:10044000DC0A00207546FFF7F9FFAE460500694655
:10045000534620F00700854618B020B5FFF73AFF55
:10046000BDE820404FF000064FF000074FF00008B5
:100470004FF0000B21F00701AC46ACE8C009ACE836
:10048000C009ACE8C009ACE8C0098D46704710B59A
:100490000446AFF300802046BDE81040FFF705BFDB
:1004A00001491820ABBEFEE726000200704790ED20
:1004B000010AD0ED000AB4EE600AF1EE10FA00D1A4
:1004C000704790ED040AD0ED000A20EE200AD0ED2E
:1004D000050A90ED011A00EE810A80ED010A00BFC5
:1004E000EEE7000010B5FE4800F0FDFAFD4800F010
:1004F000FAFAFD4800F0F7FAFC4800F0F4FAFC487C
:1005000000F0F1FAFB4800F0EEFAFB4800F0EBFADD
:10051000FA4800F0E8FAFA4800F0E5FA10BD10B524
:10052000F848D0ED000AF84890ED001A60EE810A14
:10053000B0EE600AF2EE0A0AEB4800F053FAEA481D
:1005400090ED090AF0EE400AF04890ED000AEC4800
:1005500000F048FAEE4890ED000AF3EE020AB4EE1D
:10056000E00AF1EE10FA28DDF3EE020A90ED000A3F
:10057000E04800F037FADF4890ED090AE048D0ED96
:10058000090AB4EEE00AF1EE10FA05D2D94890ED6E
:10059000090AE04880ED000AD64890ED090AD848DB
:1005A000D0ED090AB4EEE00AF1EE10FA0BDD90EDA1
:1005B000090AD84880ED000A05E0D14890ED090A03
:1005C000D44880ED000AD34890ED000AF7EE000A07
:1005D00030EE200ADFEDD00A20EE200ADFEDCF0A50
:1005E00020EE200A80ED040A90ED000AF7EE000AE2
:1005F00030EE200AF7EE000A80EE801AB7EE000A0D
:1006000030EE410ADFEDC40A20EE200ADFEDC30A16
:1006100020EE200A80ED010A90ED000AF7EE000AB4
:1006200030EE200ADFEDBC0A20EE200AB548D0EDFE
:10063000000A20EE200AB648D0ED000AB0EE041AF7
:1006400070EE810A80EE201AB7EE000A30EE410A01
:10065000DFEDB20A20EE200AAE4880ED030A90EDED
:10066000030AD0ED020A9FEDAE1A60EE810AB4EEE5
:10067000E00AF1EE10FA07DD90ED020ADFEDA80ABC
:1006800020EE200A80ED030AA24890ED010AD0ED89
:10069000020AB4EEE00AF1EE10FA03DD90ED020A70
:1006A00080ED010A9B4890ED040AD0ED050AB4EEF6
:1006B000E00AF1EE10FA03DD90ED050A80ED040A80
:1006C000944890ED010AD0ED030AB4EEE00AF1EE91
:1006D00010FA03D290ED030A80ED010A10BD10B5A7
:1006E0008A4890ED000AB5EEC00AF1EE10FA53DD2B
:1006F0008448D0ED000A844890ED001A60EE810A2B
:10070000B0EE600AF2EE0A0A754800F06BF9744820
:1007100090ED090AF0EE400A7C4890ED000A764818
:1007200000F060F97A4890ED000AF3EE020AB4EEA8
:10073000E00AF1EE10FA28DDF3EE020A90ED000A6D
:100740006A4800F04FF9694890ED090A6A48D0ED0F
:10075000090AB4EEE00AF1EE10FA05D2634890ED12
:10076000090A6C4880ED000A604890ED090A624869
:10077000D0ED090AB4EEE00AF1EE10FA5FDD90ED7B
:10078000090A644880ED000A59E05B4890ED090AC7
:10079000604880ED000A52E05A48D0ED000A5A48FD
:1007A00090ED001A60EE810AB0EE600AF2EE0A0ADD
:1007B0004C4800F017F94B4890ED090AF0EE400A5A
:1007C000524890ED000A4D4800F00CF9504890ED69
:1007D000000AF3EE020AB4EEE00AF1EE10FA28DDA8
:1007E000F3EE020A90ED000A414800F0FBF84048A1
:1007F00090ED090A4148D0ED090AB4EEE00AF1EEA5
:1008000010FA05D23A4890ED090A424880ED000AF4
:10081000374890ED090A3948D0ED090AB4EEE00AEC
:10082000F1EE10FA0BDD90ED090A3A4880ED000A6E
:1008300005E0324890ED090A364880ED000A354857
:1008400090ED000ADFED350A20EE200A80ED040A63
:100850009FED340A80ED010A2A4890ED000AF0EE7F
:10086000040A30EE200A2A48D0ED000A80EE801AF1
:100870009FED2A0A21EE000A264880ED060A90ED37
:10088000060AD0ED050A9FED261A60EE810AB4EE45
:10089000E00AF1EE10FA07DD90ED050ADFED200A1F
:1008A00020EE200A80ED060A1A4890ED040AD0EDE9
:1008B000050AB4EEE00AF1EE10FA03DD90ED050A48
:1008C00080ED040A134890ED040AD0ED060AB4EE58
:1008D000E00AF1EE10FA29D290ED060A24E00000B9
:1008E000D4000020180100205C010020A00100209D
:1008F000E4010020280200206C020020B002002049
:10090000F40200206800002064000020780000202D
:100910006C000020C00A0020CDCCCC3E0080D44624
:100920006666663F00002A4580ED040A10BD10B5DA
:1009300025480078012804D1FFF7D4FD0020224982
:1009400008702248007820B1012805D0022809D17A
:1009500005E0FFF7C7FD05E0FFF7C1FE02E0FFF786
:10096000DEFD00BF00BF1A48007840B99FED190AAC
:10097000194880ED040A9FED190A80ED010A164816
:1009800090ED040ABCEEC00A10EE100A81B21448C1
:100990000068C0F89C10104890ED040ABCEEC00A34
:1009A00010EE100AC0F34E000D49096848620A486B
:1009B00090ED010ABCEEC00A10EE100A81B20848A0
:1009C0000068C0F81C1110BDAA000020A80000207B
:1009D000AB0000200000AA44C00A002000E0C94685
:1009E00064070020B0EE401A10B99FED4F0A70471F
:1009F00090ED0F0A80ED100AC0ED070A80ED081A8D
:100A000030EEC10A80ED0F0A90ED000AD0ED0F1A0A
:100A100020EE210A80ED0A0A90ED0B0AD0ED011AB2
:100A200090ED0F2A01EE820A80ED0B0A90ED0D0A7F
:100A300080ED0E0A90ED0F0AD0ED101A30EE610A2B
:100A400080ED0D0A90ED020AD0ED0D1A20EE210A7C
:100A500080ED0C0A90ED0B0AD0ED051AB4EEE10A18
:100A6000F1EE10FA04DD90ED050A80ED0B0A10E0BE
:100A700090ED0B0AD0ED051AF1EE611AB4EEE10A21
:100A8000F1EE10FA05D290ED050AB1EE400A80EDC4
:100A90000B0A90ED0A0AD0ED0B1A30EE210AD0EDC8
:100AA0000C1A30EE210A80ED090A90ED090AD0ED0A
:100AB000031AB4EEE10AF1EE10FA04DD90ED030A38
:100AC00080ED090A0CE090ED090AD0ED041AB4EEAD
:100AD000E10AF1EE10FA03D290ED040A80ED090A62
:100AE00090ED090A83E700B970479FED0F0A80ED8A
:100AF000100A80ED0F0A9FED0C0A80ED0E0A80EDC2
:100B00000D0A9FED090A80ED0C0A80ED0B0A80EDBD
:100B10000A0A80ED090A9FED040A80ED070A80EDBC
:100B2000080A00BFE0E700000000000010B512480E
:100B3000D0ED000A1148008800EE100AB8EE400A15
:100B400020EE800ADFED0E0A20EE200ADFED0D0A0E
:100B500080EE201A0C4890ED000A31EE000A0B4896
:100B600080ED000AFFF7A3FC084890ED010A084851
:100B700080ED000A10BD0000900000200800002059
:100B80003333534000F07F4594000020600A00207A
:100B90006400002010B51248008800EE100AB8EE7C
:100BA000400A1048D0ED000A20EE200ADFED0E0AC0
:100BB00020EE200ADFED0D0A80EE201A0C4890EDA1
:100BC000000A31EE000A0B4880ED000AFFF76FFCC7
:100BD000084890ED010A084880ED000A10BD0000A9
:100BE00054000020A00000203333534000F07F4524
:100BF000A4000020A80A00207800002010B5234897
:100C0000008800EE100AB8EE400A2148D0ED000A34
:100C100020EE200ADFED1F0A20EE200ADFED1E0A7B
:100C200080EE201A1D4890ED000A31EE000A1C48A3
:100C300080ED000AFFF73BFC194890ED010A1948C6
:100C400080ED000A1148408800EE100AB8EE400A14
:100C50001548D0ED000A20EE200ADFED0E0A20EE46
:100C6000200ADFED0D0A80EE201A104890ED000AF0
:100C700031EE000A0E4880ED000AFFF718FC0C4820
:100C800090ED010A0B4880ED000A10BD56000020CF
:100C9000800000203333534000F07F458400002063
:100CA000780A002068000020980000209C000020A6
:100CB000480A00206000002010B51248008800EEAD
:100CC000100AB8EE400A1048D0ED000A20EE200AC3
:100CD000DFED0E0A20EE200ADFED0D0A80EE201A6D
:100CE0000C4890ED000A31EE000A0B4880ED000A36
:100CF000FFF7DDFB084890ED010A084880ED000A87
:100D000010BD00005A0000208800002033335340FB
:100D100000F07F458C000020900A00206C0000202D
:100D200070B50546AC6AE06D00F0500098BBE06D10
:100D300040F40070E0652068006800F00800A8B189
:100D4000206809F0C0FE10B32068C06800F40050AD
:100D5000E8B9E06D20F48070E065E06D00F480504B
:100D6000A8B9E06D40F00100E06510E02068C068BF
:100D700000F0020058B9E06D20F48070E065E06D8D
:100D800000F4805018B9E06D40F00100E0652046A5
:100D900001F09AFD0CE0FFE7E06D00F0100018B1E3
:100DA000204601F093FD03E0606D416B28468847C3
:100DB00070BD70B50546AC6AE06D40F04000E0657E
:100DC000206E40F004002066204601F07FFD70BDDB
:100DD00070B50446A56A284601F077FD70BD000095
:100DE00070B50446206809F050FE0646206809F0F8
:100DF00051FE98B396BB2068806800F00D00012872
:100E00000AD1206881681A4A1140891C816000BF9C
:100E100003202168086009E0E06D40F01000E06503
:100E2000206E40F001002066012070BD03F06EFED0
:100E3000054614E003F06AFE401B02280FD9206823
:100E4000806800F0010050B1E06D40F01000E065F6
:100E5000206E40F0010020660120E6E705E02068F2
:100E6000806800F001000028E4D10020DDE70000E8
:100E7000C0FFFF7F38B5044600200090206809F0CD
:100E800009FE002858D1206880682C49084048B1E4
:100E9000E06D40F01000E065206E40F0010020663B
:100EA000012038BD206809F0CBFD2168B1F1A04FC9
:100EB00003D0234A2168914201D1224900E022490E
:100EC000084609F0C5FD00F4000080B11F48006825
:100ED0001F49B0FBF1F0401C00EB40008000009087
:100EE00002E00098401E009000980028F9D103F01D
:100EF0000DFE05461AE0206809F0CCFD10B9206807
:100F000009F09EFD03F002FE401B02280ED9206866
:100F1000006800F0010048B9E06D40F01000E065A5
:100F2000206E40F0010020660120BAE720680068CA
:100F300000F001000028DED00020B2E73F00008072
:100F40000001005000030050000700503C0000204A
:100F5000400D030010B5DFED270A9FED270A274853
:100F60000CF060FCDFED260A9FED230A25480CF00B
:100F700059FCDFED200A9FED200A23480CF052FCBB
:100F8000DFED1C0A9FED1C0A20480CF04BFCDFED46
:100F90001C0A9FED190A1E480CF044FC1D4C7F21D1
:100FA0001D4800F00DFD7F211C4800F009FD7F2148
:100FB0001B4800F005FD7F211A4800F001FD0122C9
:100FC0002146154802F0C2F901221749134802F0E0
:100FD000BDF902221549124802F0B8F9012214495C
:100FE000104802F0B3F99FED130A134880ED000A90
:100FF00010BD00000000FA4400504348480A002099
:1010000000007A44600A0020780A0020900A00203C
:10101000A80A00201814024038030020A40300206E
:10102000100400207C040020540000205600002002
:101030005A000020003013457C0000204948007809
:10104000494908704748007820B1012837D0022864
:101050007DD169E0454890ED000ADFED450A20EEBC
:10106000200A4448D0ED000AB4EEE00AF1EE10FA8E
:1010700003DD01203B49087020E03C4890ED000A68
:10108000DFED3D0A20EE200A3A48D0ED000AB4EE2A
:10109000E00AF1EE10FA11D2344890ED000AF7EEB2
:1010A000040A20EE200A3348D0ED000AB4EEE00A2C
:1010B000F1EE10FA02DD02202A49087047E02B48C1
:1010C00090ED000ADFED2C0A20EE200A2948D0ED31
:1010D000000AB4EEE00AF1EE10FA12D2234890EDC5
:1010E000000AF7EE040A20EE200A2248D0ED000A9A
:1010F000B4EEE00AF1EE10FA03DD0220194908709F
:1011000011E01A4890ED000ADFED1B0A20EE200ADC
:101110001848D0ED000AB4EEE00AF1EE10FA02DD54
:1011200001201049087012E0104890ED000ADFED30
:10113000100A20EE200A0F48D0ED000AB4EEE00AB3
:10114000F1EE10FA02DD01200649087000BF00BF71
:101150000548007803490978884202D001200749F0
:1011600008707047A8000020A90000206800002037
:10117000CDCC4C3F6C0000209A99593FAA0000202A
:1011800000BFFEE730B50E4D0468AC4201D20D49F8
:1011900001E00C4920310B460478083C1425B4FBCF
:1011A000F5F2446CA40803EB84048464054C803499
:1011B000C46402F01F050124AC40046530BD00008A
:1011C000080402400008024001794A1E064B03EB66
:1011D00082024265044A403282654A1E02F01F03C1
:1011E00001229A40C26570470009024030B5D0E93B
:1011F00013546C60446D14B1D0E916546C6090F8CF
:10120000444004F01F050124AC40056C6C60046888
:1012100063608468102C04D10468A2600468E160F3
:1012200003E00468A1600468E26030BD704772B6F4
:1012300000BFFEE710B5024802F0BFFD10BD000080
:101240006806002010B51D4A1D4C0368A34201D159
:1012500002F554721B4C0368A34201D102F5D4621B
:1012600002640368D3F8803023F4F814838E44EAD0
:1012700003430468C4F8803002F1700343640368D8
:10128000D3F8803023F0706490F8383044EA036378
:101290000468C4F8803002F1B0038364D833C364B7
:1012A000D833036518334365114602E000230B6011
:1012B000091D02F554739942F8D310BD00A40040F3
:1012C00000680040006C004000B587B0002001902D
:1012D000029002200390012004906120059040F2CA
:1012E000FF70069001A9084802F0B0FB002201211E
:1012F000054802F0E5FA08B1FFF799FF024803F04C
:10130000D2F807B000BD00006806002070B50446A2
:101310000E4615460020A08316B10DB1288830B9BD
:101320000020A0612062202084F8320028E0607A4A
:10133000012817D10020A0612062252084F8320006
:101340001048A16A08631048A16AC8620F48A16AE0
:1013500048632B88226802F11C013246A06A02F021
:1013600013FA70BD607A30B90020A061206220209D
:1013700084F8320004E0A6612562252084F832005A
:101380000020EEE7451400085314000891130008EC
:1013900070B50546AC6AE02084F83100606B40F01F
:1013A00008006063204603F09BF870BD2DE9F04112
:1013B0000646B46AE068D0B10020E16A08631F48BD
:1013C000E16AC8621E48E16A4863238A276807F118
:1013D0001802E168E06A02F0D7F920B90020E06065
:1013E0002082BDE8F081E02084F831001CE0002577
:1013F00007E02068C06800F0004000B903E0681C06
:10140000C5B2FF2DF5D300BF2068C06800F00040D2
:1014100018B1A02084F8310006E0202084F83100C3
:10142000204603F067F8DCE7606B40F0080060637B
:10143000204603F055F800BFD3E70000AD130008C5
:101440009113000870B50446A56A284603F0E5F834
:1014500070BD70B50446A56A284600F081FA28469A
:1014600003F070F970BD00002DE9F04705460C4609
:101470009046606870B16068B0F1807F0AD06068A3
:10148000B0F1007F06D06068401C18B16068B0F110
:10149000407F00D104E040F27C61F6A00CF0C0F97E
:1014A000E06870B1E068B0F1807F0AD0E068B0F128
:1014B000007F06D0E068401C18B1E068B0F1407FC2
:1014C00000D104E040F27D61EAA00CF0A9F9607F50
:1014D00040B1607F012805D0607F022802D0607F84
:1014E000032800D104E040F27E61E2A00CF098F9FC
:1014F000A07F40B1A07F012805D0A07F022802D0A4
:10150000A07F032800D104E040F27F61D9A00CF055
:1015100087F9206A18B1206AB0F5004F00D104E0C5
:101520004FF4D061D3A00CF07BF9606AB0F1006F8A
:1015300003D0606AB0F1106F00D104E040F2816125
:10154000CCA00CF06DF9606AB0F1006F07D194F88F
:101550002800022803D394F828007F280BD9606A5A
:10156000B0F1106F08D194F82800022804D394F841
:101570002800402800D804E040F28261BDA00CF0B1
:101580004FF9606AB0F1006F0AD0606AB0F1106F75
:1015900007D194F8290020B194F829003F2800D8F9
:1015A00004E040F28361B3A00CF03AF9606AB0F154
:1015B000006F03D0606AB0F1106F04D194F82A0074
:1015C000072800D804E040F28461AAA00CF028F9B2
:1015D0002868C068C00F10B10120BDE8F08795F8F9
:1015E0003100202801D00120F7E7242085F83100C0
:1015F00003F08CFA814600206860607868B120783A
:1016000061784FF47F4202EA0121084329680968A2
:101610006FF30F010843296808606068401C70B3CD
:1016200028680068C0F30720616809B901210CE04F
:101630006168B1F1807F01D1022106E06168B1F1FA
:10164000007F01D1042100E00821884208D3607F97
:10165000012801D1606810B1607F012800D004E04A
:1016600040F2A96183A00CF0DBF82868006820F044
:101670004070616801F04071084329680860607A31
:1016800068B1207A617A4FF47F4202EA012108436F
:10169000296849686FF30F01084329684860E07AB8
:1016A00068B1A07AE17A4FF47F4202EA012108434F
:1016B000296889686FF30F01084329688860E0682A
:1016C000401C70B328688068C0F30720E16809B93E
:1016D00001210CE0E168B1F1807F01D1022106E037
:1016E000E168B1F1007F01D1042100E008218842C6
:1016F00008D3A07F012801D1E06810B1A07F0128A4
:1017000000D004E040F2C7615AA00CF089F82868C4
:10171000806820F04070E16801F04071084329685A
:101720008860208C00F40047607F012808D0607F2B
:10173000032805D0A07F012802D0A07F032801D173
:1017400047F00C0728680761607F2872A07F6872E5
:1017500028684068C0F30726606AB0F1006F03D1C3
:1017600094F82800B0420AD9606AB0F1106F07D12E
:1017700094F8280094F829100844B04200D804E0F6
:1017800040F2E4613BA00CF04BF81834E06840F004
:101790000040217C0843617C4FF47F4202EA012132
:1017A0000843A17C120202EA01410843686054F830
:1017B000180900287CD0207F0028FBD0207D217FC5
:1017C0000844B04200D804E040F2F26129A00CF0D5
:1017D00027F8207F94F82810884200DB04E040F2CC
:1017E000F46124A00CF01CF8606AB0F1006F03D122
:1017F000206908B9207D60B1606AB0F1106F09D12D
:10180000206938B1207D28B1207D94F829108842C4
:1018100000DB04E04FF4DF6116A00CF001F8207F3C
:10182000217D40EA012040F002402968C860B8F1FB
:10183000010F43D1227F04F11801284600F0B0F8CF
:10184000206938B1207D28B1227D04F1100128469D
:1018500000F0A6F84FF47A724946284600F088F85E
:1018600038B3686B40F080006863A02085F83100D1
:101870000120B2E62E2E2F447269766572732F53C3
:10188000544D3332473478785F48414C5F44726935
:101890007665722F5372632F73746D3332673478A9
:1018A000785F68616C5F666D61632E6300000000A5
:1018B0001BE0FFE7202085F8310019E02069E8608F
:1018C000207D28820020E96A08630A48E96AC86224
:1018D0000948E96A4863237FD5F800C00CF1180273
:1018E000A169E86A01F050FF77E6202085F8310011
:1018F000002072E6AD1300089113000870B504468D
:1019000003F004F905462068006940F4803021683E
:1019100008610BE003F0FAF8401BB0F5FA7F05D937
:10192000606B40F080006063012070BD206800693A
:1019300000F480300028EDD1606300BFF5E710B5FA
:101940000446204600F004F8204600F009F810BDD7
:101950000021C16041610182202180F8331070476D
:101960000021816101628183202180F8321070475B
:1019700070B504460D4616460AE003F0C7F8401B52
:10198000B04205D9606B40F080006063012070BDFB
:101990002068C06800F000400028EED100BFF6E7E4
:1019A00030B5134609E00C682488A4B20568AC6120
:1019B0000C68A41C0C605C1EE3B2002BF3D130BD9C
:1019C000F8B504460D46002000902068B0F1A04F05
:1019D0000FD03649206888420BD0354920688842AC
:1019E00007D034492068884203D0334920688842B0
:1019F00000D103E0842131A00BF012FF7F2D02D033
:101A00003D48854200D103E085212CA00BF008FF62
:101A100000BF94F85800012801D10220F8BD012030
:101A200084F8580000BF2046FFF7DAF906468EBB5F
:101A3000E06D20F4885040F00200E0652068816885
:101A40002E4A114005F0804242F00042114381606D
:101A500000BF13E00098401C00902949009888427C
:101A60000CD3E06D20F0020040F01000E06500BFF4
:101A7000002084F8580000BF0120CFE7206881686B
:101A8000C90F0029E6D1E06D20F0020040F001000E
:101A9000E06504E0FFE7E06D40F01000E06500BFA6
:101AA000002084F8580000BF3046B7E7000100501E
:101AB0000004005000050050000600502E2E2F4458
:101AC0007269766572732F53544D33324734787888
:101AD0005F48414C5F4472697665722F5372632F81
:101AE00073746D3332673478785F68616C5F6164FA
:101AF000635F65782E63000000007F40C0FFFF3FFA
:101B000002DE04002DE9F0439BB005460C464FF081
:101B100000082868B0F1A04F03D09849286888428F
:101B200000D104E040F64C0195A00BF079FE20684E
:101B3000A0B12068012811D0206802280ED02068AA
:101B400003280BD02068052808D02068062805D077
:101B50002068072802D02068092800D104E040F658
:101B60004D0187A00BF05CFE2068002843D0606820
:101B700038B16068B0F5004F03D06068B0F5404FF1
:101B800000D104E04FF405617DA00BF049FEA06890
:101B900058B3A068B0F5807F27D0A068B0F5007F6B
:101BA00023D0A068B0F5407F1FD0A068B0F5806F4B
:101BB0001BD0A068B0F5A06F17D0A068B0F5C06FBB
:101BC00013D0A068B0F5E06F0FD0A068B0F5006F3B
:101BD0000BD0A068B0F5106F07D0A068B0F5206FEB
:101BE00003D0A068B0F5306F00D104E040F6510199
:101BF00063A00BF015FE00BF95F85800012803D133
:101C000002201BB0BDE8F083012085F8580000BF1A
:101C10000020179018902868B0F1A04F02D16748B3
:101C2000009008E055492868884202D16448009035
:101C300001E000200090009850B9E86D40F02000CD
:101C4000E86500BF002085F8580000BF0120D8E7F4
:101C5000009808F033FF0746286808F02FFF002897
:101C60007FD1002F7DD12868B0F1A04F03D0534918
:101C70002868884201D1534800E05348064620684E
:101C8000D8B395F83800616841EA4030B16821F472
:101C900060410843B0602868B0F1A04F03D04749C5
:101CA0002868884201D1474800E0474845498842B2
:101CB0000AD14FF0A04008F0F2FE81463F4808F0FC
:101CC000EEFE49EA00000DE02C4808F0E8FE8146EF
:101CD0003B4808F0E4FE49EA00093C4808F0DFFE12
:101CE00049EA0000D8BBA16820680843B16840F603
:101CF0001F7291430843B06039E0FFE7B06820F4F9
:101D00006040B0602868B0F1A04F03D02B4928682C
:101D1000884201D12B4800E02B482A4988420AD149
:101D20004FF0A04008F0BBFE8146244808F0B7FE03
:101D300049EA00000DE0114808F0B1FE8146204854
:101D400008F0ADFE49EA0009204808F0A8FE49EA7B
:101D5000000020B9B06840F61F718843B06006E00B
:101D6000FFE7E86D40F02000E8654FF0010800BF94
:101D7000002085F8580000BF404642E700040050AC
:101D80002E2E2F447269766572732F53544D333261
:101D9000473478785F48414C5F4472697665722FAA
:101DA0005372632F73746D3332673478785F686170
:101DB0006C5F6164635F65782E6300000001005012
:101DC00000050050000300500007005000060050BE
:101DD0002DE9F84F05460C464FF0000A0020009010
:101DE0002868B0F1A04F0FD0FE49286888420BD078
:101DF000FD492868884207D0FC492868884203D0FA
:101E0000FB492868884200D104E040F6D221F9A0BD
:101E10000BF006FD606806283BD060680C2838D0BF
:101E20006068122835D06068182832D06068B0F534
:101E3000807F2ED06068B0F5837F2AD06068B0F5CF
:101E4000867F26D06068B0F5897F22D06068B0F5C3
:101E50008C7F1ED06068B0F5007F1AD040F206215A
:101E60006068884215D06068B0F5037F11D040F2F9
:101E70001221606888420CD06068B0F5067F08D0F7
:101E80006068B0F5407F04D040F206316068884257
:101E900000D104E040F6D321D6A00BF0C1FCA0682D
:101EA000C0B1A068B0F1004F14D0A068012811D0D3
:101EB000A06802280ED0A06803280BD0A0680428D0
:101EC00008D0A068052805D0A068062802D0A06820
:101ED000072800D104E040F6D421C6A00BF0A0FCF6
:101EE000E0687F2803D0D149E068884200D104E04F
:101EF00040F6D521BFA00BF093FC206904280AD03E
:101F0000206940B12069012805D02069022802D04B
:101F10002069032800D104E040F6D621B5A00BF0DB
:101F20007FFC286808F0A7FD810840F6FF70C840D4
:101F30006169884200D304E040F6D721ADA00BF0E0
:101F40006FFC2069042803D095F84000012800D0D8
:101F500004E040F6DB21A7A00BF062FCB349E06887
:101F600088427DD0206801287BD0B1492068884212
:101F7000FAD0490020688842F6D0AE4920688842ED
:101F8000F2D0AD4920688842EED0AC492068884242
:101F9000EAD0AB492068884263D0AA4920688842C9
:101FA0005FD0A949206888425BD0A8492068884250
:101FB00057D0A7492068884253D0A6492068884254
:101FC0004FD02868B0F1A04F1BD1A34920688842A8
:101FD00047D0A2492068884243D0A149206888425E
:101FE0003FD0A049206888423BD09F492068884262
:101FF00037D09E492068884233D09D492068884266
:102000002FD07849286888421BD19349206888429C
:102010007AD092492068884276D0914920688842D7
:1020200072D09449206888426ED0934920688842D3
:102030006AD092492068884266D0914920688842D7
:1020400062D06949286888421ED183492068884245
:102050005AD082492068884256D08149206801E0E0
:1020600059E051E088424FD08649206888424BD0E1
:1020700085492068884247D07C492068884243D0FF
:102080007B49206888423FD05849286888421BD144
:1020900071492068884237D070492068884233D01F
:1020A0006F49206888422FD07249206888422BD01F
:1020B00075492068884227D074492068884223D017
:1020C0006B49206888421FD04949286888421CD142
:1020D0006F492068884217D06E492068884213D023
:1020E0006D49206888420FD06249206888420BD031
:1020F00065492068884207D05C492068884203D03F
:102100005B492068884200D105E14FF42E6139A077
:102110000BF086FBFFE046492068884260D04549C5
:10212000206888425CD044492068884258D043499E
:102130002068884254D042492068884250D04149A2
:10214000206888424CD040492068884248D04049A5
:102150002068884244D02868B0F1A04F0FD14F4981
:10216000206888423CD03C492068884238D03B49AE
:102170002068884234D03A492068884230D01949D2
:102180002868884217D145492068884228D03249BA
:102190002068884224D031492068884220D03049C4
:1021A000206888421CD029492068884218D03149CB
:1021B0002068884214D00C492868884274D1374975
:1021C000206888420CD024492068884208D02349DE
:1021D0002068884204D022492068884200D05FE00D
:1021E00092E061E000010050000400500005005042
:1021F000000600502E2E2F447269766572732F539D
:10220000544D3332473478785F48414C5F447269AB
:102210007665722F5372632F73746D33326734781F
:10222000785F68616C5F6164632E630000007F40CB
:1022300002003004400020198000501D0001802160
:102240000002B0250004002A0008302E0010603281
:102250000040C03A0080F03E0800900C1000C01012
:102260002000F014002090B6000021C3000052C7E7
:10227000000084CB00209036000029C300005247A4
:1022800000008CCB002098B60000214300005AC704
:102290000800908C1000C0902000F09404006008AA
:1022A000FD49206888422FD0FC49286888421BD10C
:1022B000FB492068884227D0FA492068884223D009
:1022C000F949206888421FD0F849206888421BD00D
:1022D000F7492068884217D0F6492068884213D011
:1022E000ED49206888420FD0F349286888420CD114
:1022F000EF492068884207D0EE492068884203D021
:10230000E5492068884200D105E040F6E421AFF2BB
:102310001C100BF085FA00BF95F85800012802D177
:102320000220BDE8F88F012085F8580000BF28681A
:1023300008F0BFFB002879D12968D4E9002001F119
:10234000300CC0F3012B0CEB8B03D3F800C000F072
:102350001F0E4FF01F0B0BFA0EFB2CEA0B0C00F0BC
:102360001F0BC2F3846E0EFA0BFE4CEA0E0CC3F880
:1023700000C000BF286808F09CFB8146286808F070
:102380007FFB8046B9F1000F7DD1B8F1000FFBD182
:10239000A068B0F1004F0AD121680022286808F037
:1023A000A3FB4FF00041286808F0C3FB08E0A268D7
:1023B0002168286808F098FB0021286808F0B9FB1C
:1023C00060692968C968C1F3C101490000FA01F7D1
:1023D0002069042858D028682268216900F1600C1F
:1023E0000CEB8103D3F800C0DFF8D0B20CEA0B0C81
:1023F00002F0F84B4BF0004B4BEA070B4CEA0B0C8E
:10240000C3F800C000BFA06918B1A069B0F1807F17
:1024100000D105E040F61C31AFF228200BF000FAA5
:10242000207F10B1207F012801D106E026E240F68E
:102430001D31AFF240200BF0F3F92868A269216941
:1024400000F1600C0CEB8103D3F800C02CF0807C11
:102450004CEA020CC3F800C000BF2868227F216943
:10246000012A01D1520600E00022134600F1600C5F
:102470000CEB8102D2F800C02CF0007C4CEA030C7B
:10248000C2F800C000BFA7E00021286808F0EAFAFF
:10249000C0F3120030B90021286808F0E3FAC0F355
:1024A000846007E00021286808F0DCFA90FAA0F0C8
:1024B000B0FA80F02168C1F3120119B92168C1F3A3
:1024C000846104E0216891FAA1F1B1FA81F18842B6
:1024D00004D100221146286808F020FB0121286859
:1024E00008F0C0FAC0F3120030B90121286808F0E2
:1024F000B9FAC0F3846007E00121286808F0B2FA55
:1025000090FAA0F0B0FA80F02168C1F3120119B975
:102510002168C1F3846104E0216891FAA1F1B1FA64
:1025200081F1884204D100220121286808F0F6FADE
:102530000221286808F096FAC0F3120030B902218F
:10254000286808F08FFAC0F3846007E00221286849
:1025500008F088FA90FAA0F0B0FA80F02168C1F390
:10256000120119B92168C1F3846104E0216891FA6C
:10257000A1F1B1FA81F1884204D100220221286838
:1025800008F0CCFA0321286808F06CFAC0F31200B6
:1025900030B90321286808F065FAC0F3846007E0C9
:1025A0000321286808F05EFA90FAA0F0B0FA80F0F3
:1025B0002168C1F3120119B92168C1F3846104E0F3
:1025C000216891FAA1F1B1FA81F1884204D1002287
:1025D0000321286808F0A2FA286808F05BFA98BB83
:1025E0002868E2682168D0F8B030C1F3120C23EA01
:1025F0000C0302F0180BDFF8C8C02CFA0BFC0CEA35
:10260000010C43EA0C03C0F8B03000BF2D49E0686C
:10261000884219D12368C3F312031BB92368C3F39B
:10262000846304E0236893FAA3F3B3FA83F35B1C97
:1026300003F01F03092B58D82368C3F3120323B9EF
:102640002368C3F3846305E093E0236893FAA3F35C
:10265000B3FA83F35B1C03F01F034FF0010C0CFA79
:1026600003FC2368C3F312031BB92368C3F3846319
:1026700004E0236893FAA3F3B3FA83F35B1C03F03B
:102680001F034CEA836C2368C3F31203E3B9236886
:10269000C3F384631DE000000080F03E000500509D
:1026A000040060080800900C1000C0102000F01416
:1026B00000106032002090360006005000F0FF034A
:1026C000FFFF070000007F40236893FAA3F3B3FAEB
:1026D00083F35B1C03F01F0303EB43034FF0000B7A
:1026E0004BEA03534CEA03033EE02368C3F31203AF
:1026F0001BB92368C3F3846304E0236893FAA3F34C
:10270000B3FA83F35B1C03F01F034FF0010C0CFAC8
:1027100003FC2368C3F312031BB92368C3F3846368
:1027200004E0236893FAA3F3B3FA83F35B1C03F08A
:102730001F034CEA836C2368C3F312031BB923689D
:10274000C3F3846304E0236893FAA3F3B3FA83F337
:102750005B1C03F01F030A3B03EB43034FF0007BBA
:102760004BEA03534CEA03031946A268286808F0B1
:10277000BBF9494920680840E0B32968B1F1A04F8E
:1027800003D0464A2968914201D1454900E04549B4
:10279000084608F05DF9064643492068884203D0A0
:1027A0004249206888422DD106F4000050BB2868B9
:1027B000B0F1A04F03D03E492868884264D12A680E
:1027C000B2F1A04F03D0354B2A689A4201D1344A66
:1027D00000E0344A104646F4000108F099F9354803
:1027E00000683549B0FBF1F0401C00EB4000800070
:1027F000009003E025E00098401E0090009800281B
:10280000F9D141E02D49206888421BD106F0807043
:10281000C0B922492868884203D1294928688842DA
:1028200032D02A68B2F1A04F03D01C4B2A689A42DA
:1028300001D11B4A00E01B4A104646F0807108F0A7
:1028400067F921E01F49206888421DD106F4800005
:10285000D0B912492868884216D02A68B2F1A04F30
:1028600003D00B462A689A4201D10D4A00E00D4A76
:10287000104646F4800108F04BF905E0E86D40F0A1
:102880002000E8654FF0010A00BF002085F85800DD
:1028900000BF504645E500000000088000010050E0
:1028A0000003005000070050000021C31000C0903A
:1028B000000600503C000020400D0300000052C7FD
:1028C00000050050000084CB70477047704700003F
:1028D0002DE9F84304464FF000080020009014B999
:1028E0000120BDE8F8832068B0F1A04F0FD0FE4969
:1028F000206888420BD0FD492068884207D0FC49F7
:102900002068884203D0FB492068884200D104E057
:1029100040F29B11F8A00AF083FF6068B0F5803F99
:1029200035D06068B0F5003F31D06068B0F5403F09
:102930002DD0606858B36068B0F5802F27D06068EC
:10294000B0F5002F23D06068B0F5402F1FD060682D
:10295000B0F5801F1BD06068B0F5A01F17D060686D
:10296000B0F5C01F13D06068B0F5E01F0FD06068ED
:10297000B0F5001F0BD06068B0F5101F07D060687D
:10298000B0F5201F03D06068B0F5301F00D104E01F
:102990004FF4CE71D8A00AF043FFA06840B1A06800
:1029A000082805D0A068102802D0A068182800D1F7
:1029B00004E040F29D11D0A00AF032FFE06818B1A7
:1029C000E068B0F5004F00D104E04FF4CF71CAA029
:1029D0000AF026FF44F209012069884200D804E089
:1029E00040F29F11C4A00AF01BFF606910B160693A
:1029F000012800D104E04FF4D071BFA00AF010FF0D
:102A0000607F10B1607F012800D104E040F2A11185
:102A1000B9A00AF005FF206B58B1206BB0F5806FAC
:102A200007D0206BB0F5006F03D0206BB0F5406F7E
:102A300000D104E04FF4D171AFA00AF0F1FEE06ADA
:102A4000B0F5A46F7DD0E06AB0F5A86F79D0E06AE8
:102A5000B0F5886F75D0E06AB0F5AC6F71D0E06A00
:102A6000B0F5906F6DD0E06AB0F5B06F69D0E06AF4
:102A7000B0F5B46F65D0E06AB0F5F86F61D0E06A88
:102A8000B0F59C6F5DD0E06AB0F5A06F59D0E06AF8
:102A9000B0F5B86F55D0E06AB0F5C06F51D0E06ABC
:102AA000B0F5C46F7FD0E06AB0F5C86F7BD0E06A44
:102AB000B0F5D46F77D0E06AB0F5D86F73D0E06A24
:102AC000B0F5DC6F6FD0E06AB0F5E06F6BD0E06A14
:102AD000B0F5E46F67D0E06AB0F5E86F63D0E06A04
:102AE000B0F5EC6F5FD0E06AB0F5F06F5BD0E06AF4
:102AF000B0F5F46F57D02068B0F1A04F03D07A49F9
:102B00002068884221D1E06AB0F5806F4BD0E06A3E
:102B1000B0F5846F47D0E06AB0F58C6F43D0E06ABF
:102B2000B0F5BC6F3FD0E06AB0F5946F3BD0E06A7F
:102B3000B0F5CC6F37D0E06AB0F5D06F33D0E06A33
:102B400000E030E0B0F5986F2DD0684920688842E9
:102B500007D067492068884203D0664920688842C8
:102B60001FD1E06AB0F5BC6F1DD0E06AB0F5846F8C
:102B700019D0E06AB0F5806F15D0E06AB0F5986FB3
:102B800011D0E06AB0F58C6F0DD0E06AB0F5CC6F73
:102B900009D0E06AB0F5D06F05D0E06AB0F5946F67
:102BA00001D0E06A00B904E040F2A31152A00AF09B
:102BB00037FE606B38B1606BB0F1806F03D0606B33
:102BC000B0F1006F00D104E04FF4D2714AA00AF0D6
:102BD00027FE94F8380018B194F83800012800D185
:102BE00004E040F2A51144A00AF01AFEA0690428EE
:102BF00002D0A069082800D104E04FF4D3713EA0B0
:102C00000AF00EFEE06B18B1E06BB0F5805F00D10A
:102C100004E040F2A71138A00AF002FE207F10B1B4
:102C2000207F012800D104E04FF4D47132A00AF0D3
:102C3000F7FD94F8400018B194F84000012800D145
:102C400004E040F2A9112CA00AF0EAFD606900B38B
:102C5000206A18B1206A102800D804E040F2AD11B3
:102C600025A00AF0DDFD94F8240018B194F82400A2
:102C7000012800D104E04FF4D7711FA00AF0D0FD65
:102C800094F8240001280AD1A06A18B1A06A082883
:102C900000D804E04FF4D97117A00AF0C1FD94F8F0
:102CA0002400012802D1607F012800D004E040F216
:102CB000B71111A00AF0B4FDE06D30B9204600F064
:102CC000C9F90020206684F8580020688168C1F3A3
:102CD000407131B120688168154A1140816000BFA0
:102CE00000BF206826E000000001005000040050F2
:102CF00000050050000600502E2E2F4472697665A4
:102D000072732F53544D3332473478785F48414CB7
:102D10005F4472697665722F5372632F73746D33DB
:102D200032673478785F68616C5F6164632E63003A
:102D3000C0FFFF5F07F0B8FEB0B920688168BB4AEA
:102D4000114041F08051816000BFB9480068B94925
:102D5000B0FBF1F0401C4000009002E00098401EE3
:102D6000009000980028F9D1206807F09DFE48B92E
:102D7000E06D40F01000E065206E40F0010020663C
:102D80004FF00108206807F094FE0646E06D00F061
:102D9000100000287ED1002EFCD1E06D20F4807060
:102DA00040F00200E065206807F074FE88BB2068F0
:102DB000B0F1A04F03D0A0492068884201D19F48BC
:102DC00000E09F489D4988420AD14FF0A04007F09B
:102DD00061FE8146984807F05DFE49EA00000DE07B
:102DE000984807F057FE8146974807F053FE49EA96
:102DF0000009964807F04EFE49EA000048B92268EB
:102E0000B2F1A04F03D08C4B22689A4202D18B4A78
:102E100001E009E08A4A10466168826822F47C1267
:102E20000A43826000BF00BF607FE16B41EA40302F
:102E3000E1680843A168084394F8241040EA01457A
:102E400094F82400012803D1208D401E45EA404516
:102E5000E06A28B1A08D00F47870216B0843054327
:102E60002068C0687A49084028432168C860206803
:102E7000006920F04060616B0843216808612068A8
:102E800007F0FEFD0746002E72D1002FFCD1207FF7
:102E9000002100E0C2E041EA803194F8380041EAC4
:102EA00040052068C06844F2020188432843216835
:102EB000C860206980B12068006940F480302168D2
:102EC00008612068D0F8C0006FF30D002169084345
:102ED0002168C1F8C0000DE02068006920F480304E
:102EE000216808612068D0F8C0006FF30D002168E8
:102EF000C1F8C00094F8400001286FD1606CA0B107
:102F0000606C042811D0606C08280ED0606C0C280E
:102F10000BD0606C102808D0606C142805D0606C51
:102F2000182802D0606C1C2800D105E040F2762100
:102F3000AFF23C200AF074FCA06CC0B1A06C202859
:102F400015D0A06C402812D0A06C60280FD0A06CC7
:102F500080280CD0A06CA02809D0A06CC02806D076
:102F6000A06CE02803D0A06CB0F5807F01D106E012
:102F70003AE040F27721AFF280200AF051FCE06C99
:102F800018B1E06CB0F5007F00D105E04FF41E7180
:102F9000AFF29C200AF044FC206D012804D040F2DE
:102FA0000141206D884200D105E040F27921AFF265
:102FB000B8200AF035FC606C40F00101A06C0843B9
:102FC000E16C0843216D08432168096940F2FC72F5
:102FD000914308432168086106E0FFE72068006923
:102FE00020F00100216808616069012809D120688A
:102FF000006B20F00F00216A491E08432168086316
:1030000005E02068006B20F00F0021680863E06D88
:1030100020F0020040F00100E06505E0E06D40F0C6
:103020001000E0654FF0010840465AE4C0FFFF7F02
:103030003C000020400D0300000100500003005040
:10304000000700500004005000050050000600502A
:103050000740F0FF10B59CB00446142117A8FDF7F7
:10306000C2F9542102A8FDF7BEF92068B0F1A04FC3
:1030700057D14FF4004002904003139002A803F090
:10308000B5FE08B1FEF7D3F8A4480068401CA34978
:1030900008600846006801280DD100BFA048C06C38
:1030A00040F400509E49C8640846C06C00F40050CB
:1030B000019000BF00BF00BF9948C06C40F0020003
:1030C0009749C8640846C06C00F00200019000BF38
:1030D00000BFC8141790032018900020199017A95A
:1030E000904801F031FB9048904908600520486005
:1030F00000218E488160C16001614FF4007141611F
:10310000890081612021C1614FF44051016200F0CA
:10311000FFF908B1FEF78BF800BF84486065846250
:10312000F9E08349206888423ED1C0010290400303
:10313000139002A803F05AFE08B1FEF778F877481A
:103140000068401C754908600846006801280DD1D8
:1031500000BF7348C06C40F400507149C864084611
:10316000C06C00F40050019000BF00BF6E482830D2
:10317000704908602420486000216E488160C16069
:103180008021016149004161890081612021C16183
:103190000021016200F0BCF908B1FEF748F800BF59
:1031A000644860658462B6E063492068884256D10D
:1031B000800102908003149002A803F017FE08B16A
:1031C000FEF735F85D480068401C5C490860084619
:1031D000006801280DD100BF5148C06C40F4804008
:1031E0004F49C8640846C06C00F48040019000BF9D
:1031F00000BF00BF4A48C06C40F002004849C864A4
:103200000846C06C00F00200019000BF00BF4814E7
:103210001790032018900020199017A9414801F039
:1032200093FA41481430464908602520486000213F
:1032300043488160C160802101614900416189008A
:1032400081612021C1610021016200F061F908B1B2
:10325000FDF7EDFF00BF3A48606584625BE03949E5
:103260002068884257D14FF4803002908003149038
:1032700002A803F0BBFD08B1FDF7D9FF2F48006895
:10328000401C2E4908600846006801280DD100BF87
:103290002348C06C40F480402149C8640846C06C93
:1032A00000F48040019000BF00BF00BF1C48C06C0C
:1032B00040F002001A49C8640846C06C00F00200E1
:1032C000019000BF00BF88141790032018900020C1
:1032D000199017A9134801F037FA13483C301A49DE
:1032E000086026204860002117488160C160802165
:1032F000016149004161890081612021C161002192
:10330000016200F005F908B1FDF791FF00BF0E481A
:103310006065846200BF1CB010BD0000000000208A
:10332000001002400004004808000240E8040020A9
:103330000001005048050020000400500400002057
:10334000A805002000050050080600202DE9F041E6
:1033500004460F4690462168B1F1A04F03D0554A6C
:103360002168914201D1544900E05449084607F0D0
:1033700074FB05462068B0F1A04F0FD04D4920687E
:1033800088420BD04E492068884207D04D492068BA
:10339000884203D04C492068884200D104E040F2C2
:1033A000DB714AA00AF03CFA206807F082FB002893
:1033B0007CD100BF94F85800012802D10220BDE85A
:1033C000F081012084F8580000BF3F4920688842FE
:1033D00001D1012000E0002020B91DB1052D01D050
:1033E000092D5DD12046FDF745FD0646002E52D140
:1033F000E06D40F60161884340F48070E0652D493E
:103400002068884202D14FF0A04006E02D49206894
:10341000884201D12A4800E020682168884200D013
:103420001DB9E06D20F48010E065E06D00F480507F
:1034300020B1206E20F00600206601E0002020660A
:103440003048616DC8623048616D08632F48616D16
:1034500048631C202168086000BF002084F85800E1
:1034600000BF2068406840F0100021684860206874
:10347000C06840F001002168C860226802F1400184
:1034800043463A46606D00F07FF90646206807F033
:1034900023FB0CE00AE000BF002084F8580006E09F
:1034A000012600BF002084F8580000E002263046C4
:1034B00085E70000000100500003005000070050A5
:1034C0000004005000050050000600502E2E2F442E
:1034D0007269766572732F53544D3332473478785E
:1034E0005F48414C5F4472697665722F5372632F57
:1034F00073746D3332673478785F68616C5F6164D0
:10350000632E6300210D0008D10D0008B30D0008E3
:1035100070B504460CB9012070BD8B492068884203
:1035200049D0894914312068884244D086492831DD
:10353000206888423FD084493C31206888423AD094
:10354000814950312068884235D07F4964312068F4
:10355000884230D07C497831206888422BD07A4923
:103560008C312068884226D078492068884222D051
:1035700076491431206888421DD07449283120686A
:10358000884218D071493C312068884213D06F4975
:103590005031206888420ED06C49643120688842DE
:1035A00009D06A4978312068884204D067498C3153
:1035B0002068884200D103E0A32165A00AF030F919
:1035C000A06830B1A068102803D0A068B0F5804F83
:1035D00000D103E0A4215EA00AF022F9E0684028AF
:1035E00001D0E06800B903E0A52159A00AF018F95C
:1035F0002069802801D0206900B903E0A62154A0E9
:103600000AF00EF9606938B16069B0F5807F03D0C7
:103610006069B0F5007F00D103E0A7214CA00AF05B
:10362000FFF8A06938B1A069B0F5806F03D0A06938
:10363000B0F5006F00D103E0A82145A00AF0F0F832
:10364000E06910B1E069202800D103E0A92140A081
:103650000AF0E6F8206A58B1206AB0F5805F07D01A
:10366000206AB0F5005F03D0206AB0F5405F00D15A
:1036700003E0AA2136A00AF0D3F86068732800D8C6
:1036800003E0AC2132A00AF0CBF830492068884230
:103690000BD22D492068401A1421B0FBF1F08000B4
:1036A00060642948083820640AE028492068401AE4
:1036B0001421B0FBF1F080006064244808382064D5
:1036C000022084F825002068056847F6F0708543DD
:1036D000D4E9020108432169084361690843A169EB
:1036E0000843E1690843216A0843054320680560EF
:1036F0002046FDF747FDA068B0F5804F01D10020BE
:1037000060602079A16C0860D4E91310486060689B
:1037100060B16068042809D82046FDF755FD0020F7
:10372000616D0860D4E91610486003E00020606510
:10373000A065E0650020E063012084F825000020FA
:1037400084F8240000BFE7E60800024008040240B5
:103750002E2E2F447269766572732F53544D333277
:10376000473478785F48414C5F4472697665722FC0
:103770005372632F73746D3332673478785F686186
:103780006C5F646D612E63002DE9F04104460E46C6
:1037900017461D464FF000081DB1B5F5802F00D229
:1037A00004E040F2AB112EA00AF03AF800BF94F802
:1037B0002400012802D10220BDE8F081012084F814
:1037C000240000BF94F8250001283FD1022084F88E
:1037D00025000020E0632068006820F001002168D7
:1037E00008602B463A4631462046FDF7FFFC206B29
:1037F00030B12068006840F00E00216808600BE0DE
:103800002068006820F004002168086020680068D3
:1038100040F00A0021680860A06C006800F4803065
:1038200028B1A06C006840F48070A16C0860606DE5
:1038300028B1606D006840F48070616D0860206898
:10384000006840F001002168086006E000BF002029
:1038500084F8240000BF4FF002084046ACE70000A7
:103860002E2E2F447269766572732F53544D333266
:10387000473478785F48414C5F4472697665722FAF
:103880005372632F73746D3332673478785F686175
:103890006C5F646D612E630070B5044601F036F90B
:1038A00006462546681C10B104480068054400BF60
:1038B00001F02CF9801BA842FAD370BD1C00002037
:1038C0002DE9F04105460C46174695F85C8004F05A
:1038D0007F4000B904E040F6A3214DA009F0A0FF0D
:1038E00004F4C07040B117B1072F00D804E040F6CF
:1038F000A62147A009F094FFB8F1010F02D0B8F15A
:10390000020F7ED12868866D04F0070010B106F022
:10391000010018B304F0380010B106F00200E8B15D
:1039200004F4E07010B106F00400B8B104F4F050F3
:1039300010B106F0080088B104F4604010B106F040
:10394000100058B104F4403010B106F0200028B146
:1039500004F47C0040B106F0400028B92868C06D2E
:1039600040F001002968C86504F0070010B106F0B6
:10397000010018BB04F0380010B106F00200E8B9ED
:1039800004F4E07010B106F00400B8B904F4F0508B
:1039900010B106F0080088B904F4604010B106F0D8
:1039A000100058B904F4403010B106F0200028B9D6
:1039B00004F47C0040B106F0400028B12868C06DD6
:1039C00040F002002968C86504F0800030B1286822
:1039D000D0F8DC0038432968C1F8DC0004F48070BA
:1039E00030B12868D0F8E00038432968C1F8E00019
:1039F0002868406D2043296848650020BDE8F081B3
:103A0000FFE7286E40F0020028660120F6E700007C
:103A10002E2E2F447269766572732F53544D3332B4
:103A2000473478785F48414C5F4472697665722FFD
:103A30005372632F73746D3332673478785F6861C3
:103A40006C5F666463616E2E630000002DE9F047D1
:103A500005460C4695F85C90B9F1010F02D0B9F11A
:103A6000020F76D1206818B12068B0F1804F00D1E4
:103A700004E040F21A5154A009F0D2FEE06888B187
:103A8000E06801280ED0E06802280BD0E068032827
:103A900008D0E068042805D0E068052802D0E06876
:103AA000062800D104E040F21B5147A009F0B8FEFF
:103AB000206800283DD16068401C696B884200D8AE
:103AC00004E04FF4A46140A009F0AAFE2069B0F51B
:103AD000006F00D204E040F221513BA009F0A0FEAB
:103AE0006069B0F5006F00D204E040F2225136A0C8
:103AF00009F096FEA06828B1A068012802D0A0684D
:103B0000022800D104E040F223512FA009F088FEE2
:103B1000207A8007217B40EAC160218A40EA014087
:103B2000616940EA0107296C606801EB8006376033
:103B300040E06068401CA96B884200D804E040F275
:103B4000345121A009F06CFE2069B0F1005F01D270
:103B500005E032E040F235511BA009F061FE6069DA
:103B6000B0F1005F00D204E040F2365116A009F037
:103B700057FEA06840B1A068012805D0A0680228BF
:103B800002D0A068032800D104E040F237510EA013
:103B900009F046FE217B206940EA4177217A60697D
:103BA00040EA8178696C606801EBC0063760361DB9
:103BB000C6F800800020BDE8F087286E40F00200C3
:103BC00028660120F7E700002E2E2F4472697665E3
:103BD00072732F53544D3332473478785F48414CD9
:103BE0005F4472697665722F5372632F73746D33FD
:103BF00032673478785F68616C5F666463616E2EEB
:103C000063000000704770472DE9F84F044688466E
:103C100016469B46002794F85C000090B8F1400FD0
:103C200002D0B8F1410F00D104E040F6B70152A034
:103C300009F0F6FD009802287DD1B8F1400F25D19A
:103C40002068D0F8900000F00F0030B9206E40F4EA
:103C5000807020660120BDE8F88F2068D0F89000C1
:103C6000C0F3006030B12068D0F88000C0F340207D
:103C700000B101272068D0F89000C0F3012007446C
:103C800007EBC701A06C00EBC10523E02068D0F86A
:103C9000980000F00F0028B9206E40F48070206674
:103CA0000120D8E72068D0F89800C0F3006030B158
:103CB0002068D0F88000C0F3002000B10127206800
:103CC000D0F89800C0F30120074407EBC701E06C6F
:103CD00000EBC105286800F080407060706820B972
:103CE0002868C0F38A40306003E0286820F0604014
:103CF0003060286800F00050B060286800F0004094
:103D000030612D1D288880B2F0612868C0F303401F
:103D1000F060286800F480107061286800F40010DA
:103D2000B0612868C0F3066030622868C00F706216
:103D30002D1DAA4600E019E04FF0000905E01AF831
:103D400009000BF8090009F101091A49F068085C3B
:103D50004845F4D8B8F1400F03D12068C0F89470FA
:103D600002E02068C0F89C70002074E7206E40F0EC
:103D70000800206601206EE72E2E2F4472697665BA
:103D800072732F53544D3332473478785F48414C27
:103D90005F4472697665722F5372632F73746D334B
:103DA00032673478785F68616C5F666463616E2E39
:103DB0006300000052D9000870472DE9FC5F0446FB
:103DC0002068006D00F4E0572068406D07402068CF
:103DD000006D00F007082068406D00EA08082068C0
:103DE000006D00F038092068406D00EA090920687C
:103DF000006D00F4710A2068406D00EA0A0A20682C
:103E0000006D00F4602B2068406D00EA0B0B206809
:103E1000456D2068066DC6F3801040B1C5F3801073
:103E200028B14020216808652046FFF7C5FFC6F38A
:103E30000020A0B1C5F3002088B12068D0F8D800D8
:103E400000902068D0F8E0000099084000904FF4FE
:103E50008070216808652046009900F03DFB2FB175
:103E6000206807653946204600F038FBB8F1000F9E
:103E700006D02068C0F850804146204600F0F4FA91
:103E8000B9F1000F06D02068C0F85090494620468E
:103E900000F008FBC6F3402048B1C5F3402030B124
:103EA0004FF4007021680865204600F018FBC6F347
:103EB000C01098B1C5F3C01080B12068D0F8D4000C
:103EC00001902068D0F8DC00019908400190802022
:103ED000216808652046019900F0FFFAC6F34030DA
:103EE00048B1C5F3403030B14FF400502168086547
:103EF000204600F0F0FAC6F3C03048B1C5F3C03038
:103F000030B14FF4004021680865204600F0E2FA25
:103F1000C6F3803050B1C5F3803038B14FF48040E3
:103F200021680865206E40F080002066BBF1000F1C
:103F300006D02068C0F850B059462046FFF763FE0F
:103F4000BAF1000F06D02068C0F850A0206E40EAF9
:103F50000A002066206E10B12046FFF753FEBDE830
:103F6000FC9F000070B504460CB9012070BDFE49ED
:103F70002068884207D0FD492068884203D0FC4968
:103F80002068884200D104E04FF49871F9A009F04C
:103F900047FCF5492068884234D1606860B36068A6
:103FA000012829D06068022826D06068032823D021
:103FB0006068042820D0606805281DD06068062845
:103FC0001AD06068072817D06068082814D0606885
:103FD000092811D060680A280ED060680B280BD021
:103FE00060680C2808D060680D2805D060680E282D
:103FF00002D060680F2800D104E040F23311DDA048
:1040000009F00EFCA06838B1A068B0F5807F03D03D
:10401000A068B0F5407F00D104E040F23511D5A092
:1040200009F0FEFBE06858B1E068012808D0E068BC
:10403000022805D0E068032802D0E068042800D1F7
:1040400004E04FF49B71CBA009F0EAFB207C10B197
:10405000207C012800D104E040F23711C5A009F00E
:10406000DFFB607C10B1607C012800D104E04FF4DC
:104070009C71C0A009F0D4FBA07C10B1A07C0128E9
:1040800000D104E040F23911BAA009F0C9FB60691F
:1040900020B16069B0F5007F00D804E04FF49D7155
:1040A000B4A009F0BDFBA06918B1A069802800D8B0
:1040B00004E040F23B11AFA009F0B2FBE06920B18F
:1040C000E069B0F5807F00D804E04FF49E71A9A0AC
:1040D00009F0A6FB206A18B1206A802800D804E005
:1040E00040F23D11A3A009F09BFBA068B0F5407F12
:1040F0002BD1606A18B1606A202800D804E04FF420
:10410000A0719CA009F08CFBA06A18B1A06A1028CD
:1041100000D804E040F2411196A009F081FBE06A6A
:1041200018B1E06A202800D804E04FF4A17191A0F2
:1041300009F076FB206B18B1206B102800D804E042
:1041400040F243118BA009F06BFB606B1C2800D878
:1041500004E040F2451187A009F062FBA06B08283B
:1041600000D804E04FF4A37182A009F059FBE06B82
:1041700018B1E06BB0F1807F00D104E040F247114C
:104180007CA009F04DFB94F85C0028B9002084F86D
:104190005D00204600F016F92068806920F01000CC
:1041A0002168886100F0B2FC05460DE000F0AEFC2D
:1041B000401B0A2808D9206E40F001002066032029
:1041C00084F85C000120D1E62068806900F00800D6
:1041D0000828EBD02068806940F0010021688861E0
:1041E00000F094FC05460DE000F090FC401B0A280E
:1041F00008D9206E40F001002066032084F85C009E
:104200000120B3E62068806900F001000028EBD0AF
:104210002068806940F00200216888615249206866
:10422000884202D1624960680860207C012806D17A
:104230002068806920F040002168886105E02068DE
:10424000806940F0400021688861607C012806D1C7
:104250002068806940F480402168886105E020681A
:10426000806920F4804021688861A07C012806D103
:104270002068806920F480502168886105E020680A
:10428000806940F48050216888612068806920F44A
:104290004070A1680843216888612068806920F027
:1042A000A400216888612068006920F0100021685E
:1042B0000861E068012806D12068806940F00400A8
:1042C0002168886120E0E068F0B1E068022815D03C
:1042D0002068806940F0800021688861206800695A
:1042E00040F0100021680861E06803280CD12068C4
:1042F000806940F020002168886105E020688069BD
:1043000040F0200021688861207E401E4106E0695F
:10431000401E41EA0020216A491E0843A18A491E25
:1043200040EA01402168C861A068B0F5407F0FD124
:10433000A06A401EE16A491E40EA0121206B401E2E
:1043400041EA0011A08C401E41EA00402168C8608B
:104350002068D0F8C000E16B08432168C1F8C000B4
:104360002046FCF76FFF25E0006400400068004035
:10437000006C00402E2E2F447269766572732F53A5
:10438000544D3332473478785F48414C5F4472690A
:104390007665722F5372632F73746D33326734787E
:1043A000785F68616C5F666463616E2E6300000015
:1043B000006500400020A0652066012084F85C00B4
:1043C0000020D3E510B59CB00446142117A8FCF7D3
:1043D0000AF8542102A8FCF706F820492068884210
:1043E00039D1801402904003109002A802F0FEFC24
:1043F00008B1FCF71CFF00BF1948806D40F0007049
:10440000174988650846806D00F00070019000BF74
:1044100000BF00BF0846C06C40F00200C8640846F8
:10442000C06C00F00200019000BF00BF1820179080
:1044300002201890002019901A900B201B9017A9A9
:10444000084800F081F900221146582002F02CF8AB
:10445000582001F0EFFF1CB010BD0000006C0040C0
:1044600000100240000400487CB504460D466B462F
:10447000094A40210948FFF7C7FB60B906480068B0
:10448000612808D10448C068082804D1044800996C
:104490000160019941607CBDEC09002068060020A4
:1044A000400000207047014691F85C0001280BD1C4
:1044B000022081F85C000868806920F001000A6829
:1044C0009061002008667047086E40F0040008669E
:1044D0000120F8E770477047704770477047704792
:1044E000704770B504460D46012229462046FCF768
:1044F000BBFF70BD7047000000B58DB000208DF887
:10450000100005208DF811008DF8080007208DF8A7
:104510000900002003900C208DF8120006208DF871
:104520001300002005901548069002208DF81C000D
:104530001348089003208DF824004FF010600B9072
:1045400000208DF8250001208DF82600C0030A9078
:1045500003208DF8300002208DF8310000208DF806
:10456000320002A90748FFF7BCFF0120019001AA11
:104570000549044800F00AF80DB000BD0A0000200B
:104580000E000020CC060020080000202DE9F0419C
:1045900004460F46904600252068C068C00F10B141
:1045A0000120BDE8F081606808B90120F9E794F8BE
:1045B000310020282ED1242084F83100207A0128CF
:1045C00002D145F4007504E0207A032801D145F0BA
:1045D0000205607A012802D145F4807504E0607A12
:1045E000032801D145F001052068006940F203313C
:1045F0008843284321680861424639462046FCF733
:1046000085FE064616B9D4E90010C860202084F85B
:10461000310000E001263046C3E7704770B504461C
:104620000CB9012070BD19492068884200D104E00E
:1046300040F2851116A009F0F3F894F8310028B97A
:10464000002084F83000204600F040F80020606030
:104650002046FDF774F92046FDF750F9012808D1EE
:10466000606B40F010006063A02084F831000125E9
:1046700005E000206063202084F83100002500BFA1
:10468000002084F8300000BF2846CBE70014024029
:104690002E2E2F447269766572732F53544D333228
:1046A000473478785F48414C5F4472697665722F71
:1046B0005372632F73746D3332673478785F686137
:1046C0006C5F666D61632E630000000038B50446C0
:1046D0001849206888422BD100BF1748806C40F0F1
:1046E0001000154988640846806C00F010000090A6
:1046F00000BF00BF1148124908606E2048600021C9
:104700000F488160C16001614FF40071416149004F
:1047100081612021C1614FF440510162FEF7F8FE32
:1047200008B1FCF784FD00BF0548A062846200BFA9
:1047300038BD00000014024000100240080402408E
:1047400004070020704700002DE9F84305460C4699
:104750000027B5F1904F11D0B64885420ED0B6482B
:1047600085420BD0B548854208D0B548854205D072
:10477000B448854202D0B448854200D103E0A92163
:10478000B2A009F04DF8208880B220B120686FF304
:104790000F0000B903E0AA21ACA009F041F860685D
:1047A00030B36068012823D06068112820D0606889
:1047B00002281DD0606812281AD06068B0F5881FE2
:1047C00016D06068B0F5041F12D06068B0F5441FC1
:1047D0000ED06068B0F5901F0AD06068B0F5081F71
:1047E00006D06068B0F5481F02D06068032800D189
:1047F00003E0AB2195A009F013F813E10121B940C2
:10480000206800EA0108B8F1000F7DD0207900F09F
:104810000300012804D0207900F00300022823D1EE
:10482000E06840B1E068012805D0E068022802D0C5
:10483000E068032800D103E0BB2184A008F0F0FF6A
:10484000AE6879000320884086437900E06888409C
:104850000643AE606E680120B84086432079C0F3FD
:104860000010B84006436E60207900F00300032872
:1048700016D0A06828B1A068012802D0A06802283C
:1048800000D103E0CC2171A008F0CAFFEE687900E6
:104890000320884086437900A06888400643EE6084
:1048A000207900F00300022837D1B5F1904F11D0E4
:1048B000604885420ED0604885420BD05F488542F3
:1048C00008D05F48854205D05E48854202D05E48E8
:1048D000854200D103E0D9215CA008F0A1FF206946
:1048E0000F2800D803E0DA2158A008F099FFF90852
:1048F00005F1200050F821607807C10E0F20884094
:1049000086437907C90E00E08BE0206988400643A2
:10491000F90805F1200040F821602E687900032095
:1049200088408643207900F00300790088400643E0
:104930002E60606800F44030002872D000BF5248FA
:10494000006E40F00100504908660846006E00F015
:104950000100009000BF00BF4FEAB130B90850F825
:104960002160B807010F0F2088408643B5F1904FB2
:1049700001D1002019E02F48854201D1012014E027
:104980002D48854201D102200FE02C48854201D1FB
:1049900003200AE02A48854201D1042005E0294885
:1049A000854201D1052000E00620B907090F8840A3
:1049B00006433648B90840F821603548066826EABB
:1049C0000806606800F4801008B146EA080630481E
:1049D0000660001D066826EA0806606800F40010FC
:1049E00008B146EA08062A48001D06602848001F4C
:1049F000066826EA0806606800F4003008B146EA56
:104A000008062348001F0660001F066826EA0806FD
:104A1000606800F4803008B146EA08061C4808388F
:104A200006607F1C2068F84000287FF4E7AEBDE8F0
:104A3000F88300000004004800080048000C00480B
:104A40000010004800140048001800482E2E2F4483
:104A50007269766572732F53544D333247347878C8
:104A60005F48414C5F4472697665722F5372632FC1
:104A700073746D3332673478785F68616C5F677028
:104A8000696F2E6300000000001002400800014022
:104A90000804014070B506460C461546A0B218B190
:104AA000200C000400B904E04FF4CD7108A008F018
:104AB000B7FE0DB1012D00D104E040F29B1104A01E
:104AC00008F0AEFE0DB1B46100E0B46270BD00004C
:104AD0002E2E2F447269766572732F53544D3332E4
:104AE000473478785F48414C5F4472697665722F2D
:104AF0005372632F73746D3332673478785F6861F3
:104B00006C5F6770696F2E630000000001480068E9
:104B1000704700001400002070B504460D4616468C
:104B2000012D13D0022D11D0042D0FD0082D0DD042
:104B3000102D0BD0202D09D0402D07D0802D05D071
:104B4000B5F5807F02D0B5F5007F00D104E041F2D9
:104B50008F2152A008F064FE94F8DD00022800D1F5
:104B600070BD00BF94F8DC00012801D10220F7E7F6
:104B7000012084F8DC0000BF022084F8DD00202D35
:104B800045D00CDC042D27D004DC012D12D0022DE1
:104B90006AD118E0082D28D0102D65D12EE0402DC7
:104BA0003ED0802D45D0B5F5807F4BD0B5F5007F48
:104BB0005AD150E02068D0F8000466F30400216860
:104BC000C1F8000459E02068D0F8000466F38A10A8
:104BD0002168C1F8000450E02068D0F8000466F3B2
:104BE00010302168C1F8000447E02068D0F80004C4
:104BF00066F396402168C1F800043EE02068D0F8D2
:104C0000000466F31C602168C1F8000435E02068E8
:104C1000D0F8040466F304002168C1F804042CE011
:104C20002068D0F8040466F38A102168C1F80404EF
:104C300023E02068D0F8040466F310302168C1F83E
:104C400004041AE02068D0F8040466F39640216852
:104C5000C1F8040411E02068D0F8040466F31C6075
:104C60002168C1F8040408E0072084F8DD0000BFD3
:104C7000002084F8DC0000BF00BF00BF94F8DD0016
:104C8000072801D101206BE7012084F8DD0000BF77
:104C9000002084F8DC0000BF00BF61E72E2E2F4407
:104CA0007269766572732F53544D33324734787876
:104CB0005F48414C5F4472697665722F5372632F6F
:104CC00073746D3332673478785F68616C5F6872D3
:104CD00074696D2E630000002DE9F04104460F4613
:104CE0001546012F13D0022F11D0042F0FD0082FFB
:104CF0000DD0102F0BD0202F09D0402F07D0802FA0
:104D000005D0B7F5807F02D0B7F5007F00D104E071
:104D100041F2D711ADA008F083FD2868B8B128682A
:104D2000B0F5803F13D02868B0F5003F0FD0286859
:104D3000B0F5403F0BD02868B0F5802F07D0286829
:104D4000B0F5A02F03D02868B0F5C02F00D104E043
:104D500041F2D8119DA008F063FD94F8DD0002280F
:104D600001D1BDE8F08100BF94F8DC00012801D139
:104D70000220F6E7012084F8DC0000BF022084F85E
:104D8000DD002068D0F880832068D0F8FC63202FF5
:104D900067D00CDC042F2FD004DC012F12D0022F9F
:104DA0007BD11BE0082F35D0102FF9D140E0402FE8
:104DB00077D0802F73D0B7F5807F71D0B7F5007FA3
:104DC000EED1C3E028F4E028286800F4E02040EAAF
:104DD000080869682068C0F8BC13DDE028F4601892
:104DE0004FF46011286801EAC00040EA08086968C9
:104DF0002068C0F8C013CFE028F0E0784FF0E071F1
:104E0000286801EA801040EA080869682068C0F84C
:104E1000C413C1E028F060684FF06061286801EABF
:104E2000402040EA080869682068C0F8C813B3E069
:104E300026F007062868C0F3024006432068D0F831
:104E4000F80320F01F012068C0F8F8132068D0F89C
:104E5000F803297901F01F0108432168C1F8F8031C
:104E60009AE026F070067021286801EA10300643A7
:104E70002068D0F8F80320F478712068C0F8F8139F
:104E80002068D0F8F8034FF47872696802EA41119B
:104E900008432168C1F8F8037EE074E001E01DE0FA
:104EA00039E026F4E0664FF4E061286801EA10205A
:104EB00006432068D0F8F80320F4F8412068C0F8D1
:104EC000F8132068D0F8F8034FF4F842696802EA52
:104ED000812108432168C1F8F8035DE026F4E0462B
:104EE0004FF4E041286801EA101006432068D0F82A
:104EF000F80320F4F8112068C0F8F8132068D0F8FF
:104F0000F803A9884FF4F81202EA01410843216826
:104F1000C1F8F80340E026F4E026286800F4E02019
:104F200006432068D0F8F80320F078712068C0F8B4
:104F3000F8132068D0F8F803A9884FF0787202EAD5
:104F4000415108432168C1F8F80325E026F4E00642
:104F50004FF4E001286801EA001006432068D0F809
:104F6000F80320F0F8412068C0F8F8132068D0F862
:104F7000F80329794FF0F84202EA81610843216879
:104F8000C1F8F80308E0072084F8DD0000BF002026
:104F900084F8DC0000BF00BF00BF94F8DD000728E4
:104FA00001D10120DDE6102F03D22068C0F88083F4
:104FB00002E02068C0F8FC63012084F8DD0000BF37
:104FC000002084F8DC0000BF00BFCAE62E2E2F446C
:104FD0007269766572732F53544D33324734787843
:104FE0005F48414C5F4472697665722F5372632F3C
:104FF00073746D3332673478785F68616C5F6872A0
:1050000074696D2E630000007047704770477047E9
:1050100070477047704770477047000070B504468E
:105020000D46681C30B12DB1042D03D0082D01D0E0
:105030000C2D00D104E04FF4427121A008F0F0FBE8
:1050400000BF94F8DC00012801D1022070BD0120CE
:1050500084F8DC0000BF022084F8DD00681C80B901
:105060002068D0F8CC0320F002012068C0F8CC13EF
:105070002068D0F8CC0340F001012068C0F8CC13C0
:1050800018E02068D0F8CC0340F002012068C0F896
:10509000CC132068D0F8CC0320F00C002843216802
:1050A000C1F8CC032068D0F8CC0340F0010120689F
:1050B000C0F8CC13012084F8DD000020C6E7000012
:1050C0002E2E2F447269766572732F53544D3332EE
:1050D000473478785F48414C5F4472697665722F37
:1050E0005372632F73746D3332673478785F6861FD
:1050F0006C5F687274696D2E630000002DE9F041E9
:1051000005460E4614464EB1012E07D0022E05D09C
:10511000032E03D0042E01D0052E00D104E041F26D
:10512000CE515FA008F07CFB2068D8B12068B0F5B4
:10513000806F17D02068B0F5006F13D02068B0F5ED
:10514000406F0FD02068B0F5805F0BD02068B0F5BD
:10515000A05F07D02068B0F5C05F03D02068B0F52D
:10516000E05F00D104E041F2CF514DA008F058FBC0
:10517000A06818B1A068B0F5007F00D104E041F24A
:10518000D05147A008F04CFBE06818B1E068B0F5DA
:10519000004F00D104E041F2D15141A008F040FBA2
:1051A000206918B12069B0F5804F00D104E041F2C8
:1051B000D2513BA008F034FBA06918B1A069B0F14E
:1051C000007F00D104E041F2D35135A008F028FB64
:1051D000E06918B1E069B0F1004F00D104E041F29C
:1051E000D4512FA008F01CFB206A18B1206AB0F13E
:1051F000804F00D104E041F2D55129A008F010FB06
:1052000095F8DD00022801D1BDE8F08100BF95F8D6
:10521000DC00012801D10220F6E7012085F8DC003E
:1052200000BF022085F8DD00208800F4E057A08848
:10523000C0F308000743208900F400700743208A68
:1052400000F480400743A08900F400400743A08A8F
:10525000224901EA00400743A06900F000700743BB
:10526000206A00F080400743E06900F000400743F7
:105270002868803000EBC610806B1949084038431D
:105280002968803101EBC6118863012085F8DD00B3
:1052900000BF002085F8DC0000BF00BFB4E70000BD
:1052A0002E2E2F447269766572732F53544D33320C
:1052B000473478785F48414C5F4472697665722F55
:1052C0005372632F73746D3332673478785F68611B
:1052D0006C5F687274696D2E630000000000FF014E
:1052E0000020003C70477047704770477047704718
:1052F000704770B505460C46FF2C03D1284604F0D4
:105300005BFF09E0062C03D1284605F01CF803E0FA
:105310002146284605F027F970BD0000F8B504467F
:105320000CB90120F8BD62492068884200D104E030
:1053300040F233215FA008F073FA6D4960680840BD
:1053400000B904E04FF40D715AA008F069FA022088
:10535000E03404F8030C002020606060A060E0608E
:1053600020616061A061E03C207A00F0010000282B
:1053700045D0206958B12069B0F5804F07D0206929
:10538000B0F5004F03D02069B0F5404F00D104E0E4
:105390004FF41B7147A008F043FA606938B16069A7
:1053A000B0F5005F03D06069B0F5405F00D104E064
:1053B00040F26D213FA008F033FA3D492068884251
:1053C0000DD100BF4B48006E40F08060494908662F
:1053D0000846006E00F08060009000BF00BF2068AB
:1053E000066826F44046208A00F44040064326F42E
:1053F0004056A08A00F440500643206806602046CC
:1054000000F07AF8207A00F00200C8B1E06838B104
:10541000E068B0F5007F03D0E068B0F5407F00D1D0
:1054200004E040F2912123A008F0FAF92068066810
:1054300026F44076A08900F4407006432068066098
:10544000012084F8DD0000BF002084F8DC0000BFEC
:10545000002529E00021C5EBC50204F1180040F841
:105460002210C5EBC50200EB82004160C5EBC5020E
:1054700004F1180000EB82008160C5EBC50204F165
:10548000180000EB8200C160C5EBC50204F11800F2
:1054900000EB82000161C5EBC50204F1180000EBCE
:1054A00082008161681CC5B2062DD3D9002039E77E
:1054B000006801402E2E2F447269766572732F5357
:1054C000544D3332473478785F48414C5F447269B9
:1054D0007665722F5372632F73746D33326734782D
:1054E000785F68616C5F687274696D2E630000009C
:1054F00080FFFCFF0010024038B504460D492068CB
:10550000884215D100BF0C48006E40F080600A4907
:1055100008660846006E00F08060009000BF00BF83
:1055200000220121432000F0BFFF432000F082FF52
:1055300038BD0000006801400010024010B586B080
:105540000446142101A8FAF74EFF11492068884249
:105550001CD100BF0F48C06C40F001000D49C86469
:105560000846C06C00F00100009000BF00BF4FF47F
:1055700070600190022002900390032004900D209F
:10558000059001A94FF09040FFF7DEF806B010BD7E
:105590000068014000100240704770477047704734
:1055A00070B504460D46FFF7B1FA06460CE0681CDC
:1055B00050B1FFF7ABFA801BA84200D825B90720ED
:1055C00084F8DD00032070BD2068D0F88803C0F3A4
:1055D00000400028EBD0012084F8DD0000BF00204F
:1055E00084F8DC0000BF00BFEDE7704770477047EC
:1055F0007047000070B506460D461446062D0AD0C9
:105600004DB1012D07D0022D05D0032D03D0042D5F
:1056100001D0052D00D104E040F2963123A008F01E
:10562000FFF8A068A0B1A068012811D0A0680228E6
:105630000ED0A06803280BD0A068042808D0A0686A
:10564000052805D0A068062802D0A068072800D148
:1056500004E040F2973115A008F0E2F8E06808286D
:1056600004D0E06810B1E068102800D104E04FF4E5
:1056700066710EA008F0D4F896F8DD00022800D17B
:1056800070BD022086F8DD00062D04D1214630468B
:1056900004F0F6FD04E022462946304605F05AF8AB
:1056A000012086F8DD000020EAE700002E2E2F44BE
:1056B0007269766572732F53544D3332473478785C
:1056C0005F48414C5F4472697665722F5372632F55
:1056D00073746D3332673478785F68616C5F6872B9
:1056E00074696D2E630000002DE9F04104460E46FA
:1056F00017461D46062E0AD04EB1012E07D0022EA7
:1057000005D0032E03D0042E01D0052E00D104E0D5
:1057100041F2CF61A4A008F083F894F8DD000228DC
:1057200001D1BDE8F08100BF94F8DC00012801D16F
:105730000220F6E7012084F8DC0000BF022084F894
:10574000DD00062E28D1012F06D0022F08D0042F0D
:105750000AD0082F10D10BE028682168C86114E036
:1057600028682168486210E02868216888620CE097
:1057700028682168C86208E0072084F8DD0000BFBF
:10578000002084F8DC0000BF00BF00BF94F8DD00FB
:1057900007287AD10120C4E7012F06D0022F0BD0B1
:1057A000042F75D0082F72D179E0296820688030E5
:1057B00000EBC610C161E5E0022F0DD16868D8B1D9
:1057C0006868B0F5805F17D06868B0F5005F13D0E7
:1057D0006868B0F5405F0FD0082F0ED1686858B1E7
:1057E0006868B0F5805F07D06868B0F5005F03D0E7
:1057F0006868B0F5405F00D104E041F217716AA01B
:1058000008F00EF829682068803000EBC61041626D
:10581000686868B32068803000EBC610006820F428
:1058200040512068803000EBC61001602068803055
:1058300000EBC6100068696808432168803101EBFD
:10584000C61108606868B0F5005F06D1A9682068D5
:10585000803000EBC610C16116E06868B0F5405FAB
:1058600012D1A9682068803000EBC61081620BE07D
:105870002068803000EBC610006820F4405021689A
:10588000803101EBC61108607CE082E000E070E04E
:1058900029682068803000EBC610816272E0022F18
:1058A0000DD16868D8B16868B0F5805F17D06868B6
:1058B000B0F5005F13D06868B0F5405F0FD0082FD7
:1058C0000ED1686858B16868B0F5805F07D0686825
:1058D000B0F5005F03D06868B0F5405F00D104E028
:1058E00041F2447130A007F09BFF296820688030A6
:1058F00000EBC610C162686870B32068803000EBAE
:10590000C610006820F440412068803000EBC610CB
:1059100001602068803000EBC6100068696840EACA
:1059200081012068803000EBC61001606868B0F526
:10593000005F06D1A9682068803000EBC610C16105
:1059400016E06868B0F5405F12D1A9682068803021
:1059500000EBC61081620BE02068803000EBC610BF
:10596000006820F440412068803000EBC6100160E0
:1059700008E0072084F8DD0000BF002084F8DC0088
:1059800000BF00BF00BF94F8DD00072801D101204F
:10599000C7E6012084F8DD0000BF002084F8DC00A9
:1059A00000BF00BFBDE600002E2E2F447269766551
:1059B00072732F53544D3332473478785F48414CDB
:1059C0005F4472697665722F5372632F73746D33FF
:1059D00032673478785F68616C5F687274696D2EC5
:1059E0006300000070B504460D4625F4FE0000B9C2
:1059F00004E041F6041110A007F012FF00BF94F874
:105A0000DC00012801D1022070BD012084F8DC00F7
:105A100000BF022084F8DD00206800682843216868
:105A20000860012084F8DD0000BF002084F8DC005D
:105A300000BF00BFE8E700002E2E2F447269766594
:105A400072732F53544D3332473478785F48414C4A
:105A50005F4472697665722F5372632F73746D336E
:105A600032673478785F68616C5F687274696D2E34
:105A70006300000070B504460E4626F4FE0000B92F
:105A800004E041F6551127A007F0CAFE00BF94F8C4
:105A9000DC00012801D1022070BD012084F8DC0067
:105AA00000BF022084F8DD002068D0F89003616810
:105AB00008432168C1F8900306F4803030B12068B3
:105AC000C168D4F8C80001432068C160002518E00F
:105AD000234850F82500304088B12068803000EB22
